{
  "contractName": "MyGame",
  "abi": [
    {
      "constant": false,
      "inputs": [
        {
          "name": "name",
          "type": "string"
        }
      ],
      "name": "ShowScore",
      "outputs": [
        {
          "name": "",
          "type": "int256"
        }
      ],
      "payable": false,
      "stateMutability": "nonpayable",
      "type": "function"
    }
  ],
  "bytecode": "0x608060405234801561001057600080fd5b50610220806100206000396000f300608060405260043610610041576000357c0100000000000000000000000000000000000000000000000000000000900463ffffffff168063f06c5f0f14610046575b600080fd5b34801561005257600080fd5b506100ad600480360381019080803590602001908201803590602001908080601f01602080910402602001604051908101604052809392919081815260200183838082843782019150505050505091929192905050506100c3565b6040518082815260200191505060405180910390f35b6000807331956956e8ef42d1bcfe38bbb3b9dfad802c698790508073ffffffffffffffffffffffffffffffffffffffff1663308d1964846040518263ffffffff167c01000000000000000000000000000000000000000000000000000000000281526004018080602001828103825283818151815260200191508051906020019080838360005b8381101561016557808201518184015260208101905061014a565b50505050905090810190601f1680156101925780820380516001836020036101000a031916815260200191505b5092505050602060405180830381600087803b1580156101b157600080fd5b505af11580156101c5573d6000803e3d6000fd5b505050506040513d60208110156101db57600080fd5b81019080805190602001909291905050509150509190505600a165627a7a72305820292df291d5300097d13a32916d3a4f43cb8801321aaae357a095b2e516458b700029",
  "source": "pragma solidity ^0.4.4;\r\n\r\ncontract IScoreStore{\r\n    function GetScore(string name) returns (int);\r\n}\r\n\r\ncontract MyGame\r\n{\r\nfunction ShowScore(string name) returns (int)\r\n    {\r\n        IScoreStore scoreStore = IScoreStore(0x31956956e8ef42d1bcfe38bbb3b9dfad802c6987);\r\n        return scoreStore.GetScore(name);\r\n\r\n    }\r\n\r\n}\r\n",
  "sourcePath": "D:\\Pluralsight\\MyGame\\contracts\\MyGame.sol",
  "compiler": {
    "name": "solc",
    "version": "0.4.24+commit.e67f0147.Emscripten.clang"
  },
  "schemaVersion": "2.0.1",
  "updatedAt": "2018-11-24T13:33:56.563Z"
}